:100000000C9434000C9471020C94BC020C945100BA
:100010000C9451000C9451000C9451000C9451001C
:100020000C9451000C9451000C9451000C9451000C
:100030000C9451000C9451000C9407030C94510043
:100040000C9451000C9451000C9451000C941A051E
:100050000C9451000C9451000C9451000C945100DC
:100060000C9451000C94510011241FBECFEFD8E026
:10007000DEBFCDBF11E0A0E0B1E0E4E1F1E102C0FC
:1000800005900D92AC3BB107D9F723E0ACEBB1E0A2
:1000900001C01D92AA3DB207E1F70E94FB030C9438
:1000A00088080C940000FC01442319F082818033FD
:1000B00029F0411105C08281813311F41582148227
:1000C000442319F081E3828302C080E38283848128
:1000D0009581009739F421E023836183019695830C
:1000E0008483089599231CF401969583848308954D
:1000F00085B1816085B987EB9BE00197F1F700C07E
:1001000000004E9B07C041E061E380E091E00E9467
:10011000530006C040E060E280E091E00E9453009E
:10012000359B07C041E062E386E091E00E94530006
:1001300006C040E060E286E091E00E9453004F9BE1
:1001400007C041E063E38CE091E00E94530006C0E9
:1001500040E060E28CE091E00E945300339B07C0D6
:1001600041E061E482E191E00E94530006C040E07A
:1001700060E282E191E00E94530085B18E7F85B9F3
:1001800008958BB180618BB98FE295E70197F1F704
:1001900000C000004E9B07C041E064E388E191E0AD
:1001A0000E94530006C040E060E288E191E00E94B6
:1001B0005300359B07C041E065E38EE191E00E946A
:1001C000530006C040E060E28EE191E00E945300DF
:1001D0004F9B07C041E066E384E291E00E94530038
:1001E00006C040E060E284E291E00E945300339B4D
:1001F00007C041E062E48AE291E00E94530006C039
:1002000040E060E28AE291E00E9453008BB18F7E71
:100210008BB9089588B1806188B987EB9BE001971D
:10022000F1F700C000004E9B07C041E067E380E3A8
:1002300091E00E94530006C040E060E280E391E05C
:100240000E945300359B07C041E068E386E391E0DC
:100250000E94530006C040E060E286E391E00E9405
:1002600053004F9B07C041E069E38CE391E00E949B
:10027000530006C040E060E28CE391E00E9453002E
:10028000339B07C041E063E482E491E00E945300A5
:1002900006C040E060E282E491E00E94530088B131
:1002A0008F7E88B908958BB180628BB987EB9BE014
:1002B0000197F1F700C000004E9B07C041E06AE2E1
:1002C00088E491E00E94530006C040E060E288E4C8
:1002D00091E00E945300359B07C041E060E38EE44B
:1002E00091E00E94530006C040E060E28EE491E09D
:1002F0000E9453004F9B07C041E063E284E591E018
:100300000E94530006C040E060E284E591E00E9454
:100310005300339B07C041E064E48AE591E00E940A
:10032000530006C040E060E28AE591E00E9453007D
:100330008BB18F7D8BB90895199B07C041E069E5AA
:1003400080E691E00E945300089540E060E280E67C
:1003500091E00E9453000895329B07C041E069E597
:100360008BE691E00E945300089540E060E28BE646
:1003700091E00E94530008950F931F9385B180610F
:1003800085B985B1877F85B990E040E050E060E0B5
:1003900071E000E010E0980111C085B18F7E85B951
:1003A0001D9B04C0042B152B262B372B76956795A8
:1003B0005795479585B1806185B99F5F983168F3FE
:1003C00085B1886085B90115110580E228073105DE
:1003D00070F50093BE011093BF012093C0013093CC
:1003E000C101C901B8018F7199272BEB32E040E0C0
:1003F00050E00E945F05E8ECF1E020833183428306
:10040000538385B1886085B980819181A281B38150
:10041000448155816681778184179507A607B707C0
:1004200031F021E0208784839583A683B7831F91D1
:100430000F9108950F931F9385B1806185B985B1A0
:100440008B7F85B990E040E050E060E071E000E033
:1004500010E0980111C085B18F7E85B91D9B04C045
:10046000042B152B262B372B76956795579547959B
:1004700085B1806185B99F5F983168F385B18460EB
:1004800085B90115110580E22807310538F500937B
:10049000BE011093BF012093C0013093C101C90177
:1004A000B8018F7199272BEB32E040E050E00E94B9
:1004B0005F05E8ECF1E02187328743875487858523
:1004C0009685A785B089281739074A075B0731F059
:1004D00081E0818B258736874787508B1F910F914D
:1004E00008951F920F920FB60F9211242F938F939E
:1004F0009F93AF93BF93EF93FF93309918C0809170
:10050000660190916701A0916801B091690100971F
:10051000A105B10529F1E0E6F1E00197A109B109D2
:1005200086839783A087B18781E0828719C08091F5
:10053000660190916701A0916801B0916901883EC0
:1005400023E09207A105B10558F4E0E6F1E0019639
:10055000A11DB11D86839783A087B18781E0828723
:10056000FF91EF91BF91AF919F918F912F910F903C
:100570000FBE0F901F9018951F920F920FB60F92FB
:1005800011242F938F939F93AF93BF93EF93FF9378
:10059000319918C08091710190917201A0917301FD
:1005A000B09174010097A105B10529F1E0E6F1E0F1
:1005B0000197A109B109818B928BA38BB48B81E048
:1005C000858B19C08091710190917201A091730186
:1005D000B0917401883E23E09207A105B10558F45B
:1005E000E0E6F1E00196A11DB11D818B928BA38BFA
:1005F000B48B81E0858BFF91EF91BF91AF919F917B
:100600008F912F910F900FBE0F901F9018951F92F2
:100610000F920FB60F9211242F933F934F935F9336
:100620006F937F938F939F93AF93BF934091C60136
:100630005091C7014F5F5F4F5093C7014093C60170
:100640009A013695279536952795ABE7B4E10E9438
:1006500081059695879564E6689F9001699F300DA6
:100660001124CA01821B930B51F42091BC013091DB
:10067000BD0121603093BD012093BC0119C08235BA
:10068000910551F42091BC013091BD01226030935D
:10069000BD012093BC010CC08435910549F4209123
:1006A000BC013091BD0124603093BD012093BC0199
:1006B0008A35910549F48091BC019091BD01886013
:1006C0009093BD018093BC01BF91AF919F918F9199
:1006D0007F916F915F914F913F912F910F900FBE3E
:1006E0000F901F9018952091C2013091C301F9011C
:1006F000E652FD4F80832F5F3F4F3093C30120931D
:10070000C2012F3F310529F020F01092C301109251
:10071000C20108950F931F93CF93DF938C01C0E024
:10072000D0E007C0F801EC0FFD1F80810E94730329
:100730002196F80101900020E9F73197E01BF10BB9
:10074000CE17DF0778F3E1ECF0E0808180628083F0
:10075000DF91CF911F910F9108951F93CF93DF9356
:1007600010E042C0812F90E0FC01EE0FFF1FEE0F62
:10077000FF1FEE0FFF1FE80FF91FE853FE4F208504
:10078000222389F12091C1012F932091C0012F9341
:100790002091BF012F932091BE012F93EF01838100
:1007A0008F9382818F9381818F9380818F931F920A
:1007B0001F9386E791E09F938F9381E08F931F9221
:1007C0008AED91E09F938F930E9490058AED91E0CE
:1007D0000E948A0318868DB79EB740960FB6F8948C
:1007E0009EBF0FBE8DBF1F5F123008F4BBCFDF91DD
:1007F000CF911F91089580E38AB98DE184B980E19A
:1008000087B978941092C5009CE09093C40080E270
:100810008093C00088E08093C10086E08093C2008E
:100820008AE08093690083E08DBB82E084BD97BD40
:1008300080936E0085E085BD8CE185B98FE891E0FD
:100840000E948A038091BC0180FF16C085B180613F
:1008500085B985B1837F85B988E28A95F1F785B13D
:100860008C6085B98091BC019091BD018E7F909381
:10087000BD018093BC011BC081FF0CC00E94BC0164
:100880008091BC019091BD018D7F9093BD018093BB
:10089000BC010DC082FF0BC00E941A028091BC01F6
:1008A0009091BD018B7F9093BD018093BC0180919D
:1008B000BC0183FF0BC00E94AD038091BC019091ED
:1008C000BD01877F9093BD018093BC010E949C0174
:1008D0000E94AC010E940A010E9453010E9478000C
:1008E0000E94C10010E03CC0C12FD0E0FE01EE0F1D
:1008F000FF1FEC0FFD1FEE0FFF1FE050FF4F838126
:10090000882369F17E01EE0CFF1CF701EC0FFD1F3F
:10091000EE0FFF1FE050FF4F81811F928F9386E9FA
:1009200091E09F938F9381E08F931F928AED91E0E6
:100930009F938F930E9490058AED91E00E948A0315
:10094000CE0DDF1DCC0FDD1FC050DF4F1B82EDB77A
:10095000FEB738960FB6F894FEBF0FBEEDBF1F5F0F
:10096000103110F2C0E062C0EC2EF12C8BE08E9DB5
:10097000F0018F9DF00D1124E05AFE4F83818823F2
:1009800009F18F0181811F928F931F92CF9380EA8B
:1009900091E09F938F9381E08F931F928AED91E076
:1009A0009F938F930E9490058AED91E00E948A03A5
:1009B000F80113828DB79EB70A960FB6F8949EBFC2
:1009C0000FBE8DBF8BE08E9DF0018F9DF00D112429
:1009D000E05AFE4F8285882341F18F01369683814C
:1009E0008F9382818F9381818F93F80186818F937A
:1009F000FF92EF928CEA91E09F938F9381E08F9327
:100A00001F928AED91E09F938F930E9490058AED4B
:100A100091E00E948A03F80112868DB79EB70C966A
:100A20000FB6F8949EBF0FBE8DBFCF5FC23008F4E3
:100A30009BCF08CF1F920F920FB60F9211242F93C6
:100A40003F938F939F93EF93FF938091C401909175
:100A5000C5012091C2013091C30182179307D9F0DB
:100A6000FC01E652FD4F80818093C6008091C40155
:100A70009091C50101969093C5018093C401209186
:100A8000C2013091C3018217930729F4E1ECF0E031
:100A900080818F7D80838091C4019091C5019927C9
:100AA0009093C5018093C401FF91EF919F918F9125
:100AB0003F912F910F900FBE0F901F901895A1E2BC
:100AC0001A2EAA1BBB1BFD010DC0AA1FBB1FEE1FC8
:100AD000FF1FA217B307E407F50720F0A21BB30B13
:100AE000E40BF50B661F771F881F991F1A9469F78F
:100AF00060957095809590959B01AC01BD01CF01EB
:100B00000895A29FB001B39FC001A39F700D811DE6
:100B10001124911DB29F700D811D1124911D089506
:100B2000AEE0B0E0E6E9F5E00C945F080D891E89BF
:100B30008F89988D26E02C831A83098397FF02C042
:100B400080E090E801979E838D83AE01455E5F4F04
:100B5000698D7A8DCE0101960E94C0054D815E811E
:100B600057FD0AC02F813885421753070CF49A01AC
:100B7000F801E20FF31F10822E96E4E00C947B083C
:100B8000ABE0B0E0E6ECF5E00C9451086C017B01C1
:100B90008A01FC0117821682838181FFCCC1CE01BC
:100BA00001963C01F6019381F70193FD859193FF36
:100BB00081917F01882309F4BAC1853239F493FD0C
:100BC000859193FF81917F01853229F4B60190E0F0
:100BD0000E94B707E7CF912C212C312CFFE1F315B0
:100BE000D8F08B3279F038F4803279F08332A1F486
:100BF000232D20611DC08D3261F0803369F4232DD7
:100C0000216016C0832D8260382EE32DE4603E2ED5
:100C10002AC0F32DF8601DC037FC2DC020ED280F31
:100C20002A3040F08E32B9F436FC81C1232D206485
:100C3000322E19C036FE06C08AE0989E200D11247F
:100C4000922E11C0EAE02E9E200D1124222EF32DAB
:100C5000F0623F2E08C08C3621F4832D8068382E38
:100C600002C0883641F4F70193FD859193FF81918D
:100C70007F018111B3CF982F9F7D9554933028F435
:100C80000C5F1F4F9FE399830DC0833631F083378C
:100C900071F0833509F059C021C0F8018081898342
:100CA0000E5F1F4F88248394912C530113C0280199
:100CB000F2E04F0E511CF801A080B18036FE03C057
:100CC000692D70E002C06FEF7FEFC5010E94AC0795
:100CD0004C018201F32DFF773F2E16C0280122E040
:100CE000420E511CF801A080B18036FE03C0692D70
:100CF00070E002C06FEF7FEFC5010E94A1074C01B9
:100D0000F32DF0683F2E820133FC1BC0822D90E052
:100D100088169906B0F4B60180E290E00E94B70709
:100D20002A94F4CFF50137FC859137FE81915F015C
:100D3000B60190E00E94B70721102A9421E0821AA0
:100D400091088114910471F7E8C0843611F0893656
:100D500041F5F80137FE07C060817181828193817E
:100D60000C5F1F4F08C060817181072E000C880B3B
:100D7000990B0E5F1F4FF32DFF763F2E97FF09C093
:100D800090958095709561957F4F8F4F9F4FF0683C
:100D90003F2E2AE030E0A3010E94F307882E861838
:100DA00045C0853731F4232D2F7EB22E2AE030E066
:100DB00025C0932D997FB92E8F36C1F018F4883550
:100DC00079F0B5C0803719F0883721F0B0C0E92F2D
:100DD000E061BE2EB4FE0DC0FB2DF460BF2E09C035
:100DE00034FE0AC0292F2660B22E06C028E030E06B
:100DF00005C020E130E002C020E132E0F801B7FE9A
:100E000007C060817181828193810C5F1F4F06C092
:100E10006081718180E090E00E5F1F4FA3010E940E
:100E2000F307882E8618FB2DFF773F2E36FE0DC068
:100E3000232D2E7FA22E891458F434FE0BC032FCD1
:100E400009C0832D8E7EA82E05C0B82CA32C03C00C
:100E5000B82C01C0B92CA4FE0FC0FE01E80DF11D95
:100E60008081803321F49A2D997EA92E09C0A2FE9B
:100E700006C0B394B39404C08A2D867809F0B39465
:100E8000A3FC11C0A0FE06C0B21488F4280C922C5A
:100E90009B180EC0B21460F4B60180E290E00E948C
:100EA000B707B394F7CFB21418F42B1802C0982CDC
:100EB000212CA4FE10C0B60180E390E00E94B70789
:100EC000A2FE17C0A1FC03C088E790E002C088E53D
:100ED00090E0B6010CC08A2D867859F0A1FE02C0C0
:100EE0008BE201C080E2A7FC8DE2B60190E00E9497
:100EF000B707891438F4B60180E390E00E94B70781
:100F00009A94F7CF8A94F301E80DF11D8081B60120
:100F100090E00E94B7078110F5CF222009F442CE5D
:100F2000B60180E290E00E94B7072A94F6CFF6015E
:100F30008681978102C08FEF9FEF2B96E2E10C94A0
:100F40006D08FC010590615070400110D8F7809544
:100F500090958E0F9F1F0895FC0161507040019085
:100F60000110D8F7809590958E0F9F1F08950F93CD
:100F70001F93CF93DF93FB01238121FD03C08FEFEC
:100F80009FEF2CC022FF16C04681578124813581F6
:100F90004217530744F4A081B1819D012F5F3F4F59
:100FA000318320838C93268137812F5F3F4F378396
:100FB000268314C08B01EC01FB010084F185E02D38
:100FC0000995892BE1F6D80116968D919C9117977A
:100FD000019617969C938E931697CE01DF91CF9131
:100FE0001F910F910895FA01AA27283051F120315D
:100FF00081F1E8946F936E7F6E5F7F4F8F4F9F4FAD
:10100000AF4FB1E03ED0B4E03CD0670F781F891FEE
:101010009A1FA11D680F791F8A1F911DA11D6A0FBC
:10102000711D811D911DA11D20D009F468943F916F
:101030002AE0269F11243019305D3193DEF6CF016E
:101040000895462F4770405D4193B3E00FD0C9F734
:10105000F6CF462F4F70405D4A3318F0495D31FDA1
:101060004052419302D0A9F7EACFB4E0A6959795F4
:10107000879577956795BA95C9F7009761057105CA
:1010800008959B01AC010A2E069457954795379514
:101090002795BA95C9F7620F731F841F951FA01D6E
:1010A00008952F923F924F925F926F927F928F920C
:1010B0009F92AF92BF92CF92DF92EF92FF920F93E7
:1010C0001F93CF93DF93CDB7DEB7CA1BDB0B0FB6F1
:1010D000F894DEBF0FBECDBF09942A8839884888AE
:1010E0005F846E847D848C849B84AA84B984C88444
:1010F000DF80EE80FD800C811B81AA81B981CE0F3B
:10110000D11D0FB6F894DEBF0FBECDBFED0108951F
:04111000F894FFCF81
:10111400313120000000323220000000333320003F
:101124000000414120000000343420000000353527
:10113400200000003636200000004242200000005B
:1011440037372000000038382000000039392000EB
:1011540000004343200000002A2A20000000303011
:10116400200000002323200000004444200000004D
:101174004E4E20000000F4010000004E4E200000FE
:1011840000F4010000003C504F5425643A253036E9
:101194006C642074743A2530366C643E0D0A005237
:1011A400657365740A003C4B423A25633E0D0A00A0
:1011B4003C4B4525643A25633E0D0A003C454E25CB
:0C11C400643A2530366C643E0D0A0000D1
:00000001FF
